{
  "_format": "hh-sol-artifact-1",
  "contractName": "CrowdFunding",
  "sourceName": "contracts/CrowdFunding.sol",
  "abi": [
    {
      "anonymous": false,
      "inputs": [
        {
          "indexed": true,
          "internalType": "uint256",
          "name": "campaignId",
          "type": "uint256"
        },
        {
          "indexed": true,
          "internalType": "address",
          "name": "contributor",
          "type": "address"
        },
        {
          "indexed": false,
          "internalType": "uint256",
          "name": "amount",
          "type": "uint256"
        }
      ],
      "name": "CampaignContributed",
      "type": "event"
    },
    {
      "anonymous": false,
      "inputs": [
        {
          "indexed": true,
          "internalType": "uint256",
          "name": "campaignId",
          "type": "uint256"
        },
        {
          "indexed": false,
          "internalType": "bool",
          "name": "goalMet",
          "type": "bool"
        }
      ],
      "name": "CampaignEnded",
      "type": "event"
    },
    {
      "anonymous": false,
      "inputs": [
        {
          "indexed": true,
          "internalType": "uint256",
          "name": "campaignId",
          "type": "uint256"
        },
        {
          "indexed": true,
          "internalType": "address",
          "name": "owner",
          "type": "address"
        },
        {
          "indexed": false,
          "internalType": "uint256",
          "name": "goal",
          "type": "uint256"
        },
        {
          "indexed": false,
          "internalType": "uint256",
          "name": "deadline",
          "type": "uint256"
        }
      ],
      "name": "CampaignStarted",
      "type": "event"
    },
    {
      "inputs": [
        {
          "internalType": "uint256",
          "name": "_campaignId",
          "type": "uint256"
        },
        {
          "internalType": "uint256",
          "name": "_amount",
          "type": "uint256"
        }
      ],
      "name": "contribute",
      "outputs": [],
      "stateMutability": "payable",
      "type": "function"
    },
    {
      "inputs": [
        {
          "internalType": "uint256",
          "name": "_campaignId",
          "type": "uint256"
        }
      ],
      "name": "endCampaign",
      "outputs": [],
      "stateMutability": "nonpayable",
      "type": "function"
    },
    {
      "inputs": [],
      "name": "getAllCampaigns",
      "outputs": [
        {
          "components": [
            {
              "internalType": "address",
              "name": "owner",
              "type": "address"
            },
            {
              "internalType": "string",
              "name": "description",
              "type": "string"
            },
            {
              "internalType": "uint256",
              "name": "goal",
              "type": "uint256"
            },
            {
              "internalType": "uint256",
              "name": "deadline",
              "type": "uint256"
            },
            {
              "internalType": "uint256",
              "name": "balance",
              "type": "uint256"
            },
            {
              "internalType": "bool",
              "name": "ended",
              "type": "bool"
            }
          ],
          "internalType": "struct CrowdFunding.Campaign[]",
          "name": "",
          "type": "tuple[]"
        }
      ],
      "stateMutability": "view",
      "type": "function"
    },
    {
      "inputs": [
        {
          "internalType": "uint256",
          "name": "_campaignId",
          "type": "uint256"
        }
      ],
      "name": "getAllDonors",
      "outputs": [
        {
          "internalType": "address[]",
          "name": "",
          "type": "address[]"
        }
      ],
      "stateMutability": "view",
      "type": "function"
    },
    {
      "inputs": [
        {
          "internalType": "string",
          "name": "_description",
          "type": "string"
        },
        {
          "internalType": "uint256",
          "name": "_goal",
          "type": "uint256"
        },
        {
          "internalType": "uint256",
          "name": "_deadline",
          "type": "uint256"
        }
      ],
      "name": "startCampaign",
      "outputs": [],
      "stateMutability": "nonpayable",
      "type": "function"
    },
    {
      "inputs": [],
      "name": "totalCampaigns",
      "outputs": [
        {
          "internalType": "uint256",
          "name": "",
          "type": "uint256"
        }
      ],
      "stateMutability": "view",
      "type": "function"
    }
  ],
  "bytecode": "0x608060405260008055348015601357600080fd5b50611d64806100236000396000f3fe6080604052600436106100555760003560e01c806302932f561461005a5780632495efb8146100855780636616a963146100c257806386cdf604146100eb5780638c59091714610116578063dd0408ae14610132575b600080fd5b34801561006657600080fd5b5061006f61015b565b60405161007c9190610ddd565b60405180910390f35b34801561009157600080fd5b506100ac60048036038101906100a79190610e38565b610161565b6040516100b99190610f55565b60405180910390f35b3480156100ce57600080fd5b506100e960048036038101906100e491906110bd565b610202565b005b3480156100f757600080fd5b506101006103fb565b60405161010d9190611320565b60405180910390f35b610130600480360381019061012b9190611342565b6105db565b005b34801561013e57600080fd5b5061015960048036038101906101549190610e38565b61095f565b005b60005481565b6060600360008381526020019081526020016000208054806020026020016040519081016040528092919081815260200182805480156101f657602002820191906000526020600020905b8160009054906101000a900473ffffffffffffffffffffffffffffffffffffffff1673ffffffffffffffffffffffffffffffffffffffff16815260200190600101908083116101ac575b50505050509050919050565b428111610244576040517f08c379a000000000000000000000000000000000000000000000000000000000815260040161023b906113df565b60405180910390fd5b60008211610287576040517f08c379a000000000000000000000000000000000000000000000000000000000815260040161027e9061144b565b60405180910390fd5b6040518060c001604052803373ffffffffffffffffffffffffffffffffffffffff1681526020018481526020018381526020018281526020016000815260200160001515815250600160008054815260200190815260200160002060008201518160000160006101000a81548173ffffffffffffffffffffffffffffffffffffffff021916908373ffffffffffffffffffffffffffffffffffffffff160217905550602082015181600101908161033e9190611677565b5060408201518160020155606082015181600301556080820151816004015560a08201518160050160006101000a81548160ff02191690831515021790555090505060008081548092919061039290611778565b91905055503373ffffffffffffffffffffffffffffffffffffffff1660016000546103bd91906117c0565b7f50ebbe8281f15d5d2cdd91b5c29b25ad253c4587660a7cadd4507c658dc7f9aa84846040516103ee9291906117f4565b60405180910390a3505050565b60606000805467ffffffffffffffff81111561041a57610419610f92565b5b60405190808252806020026020018201604052801561045357816020015b610440610d76565b8152602001906001900390816104385790505b50905060005b6000548110156105d3576000600160008381526020019081526020016000209050806040518060c00160405290816000820160009054906101000a900473ffffffffffffffffffffffffffffffffffffffff1673ffffffffffffffffffffffffffffffffffffffff1673ffffffffffffffffffffffffffffffffffffffff1681526020016001820180546104ec9061149a565b80601f01602080910402602001604051908101604052809291908181526020018280546105189061149a565b80156105655780601f1061053a57610100808354040283529160200191610565565b820191906000526020600020905b81548152906001019060200180831161054857829003601f168201915b505050505081526020016002820154815260200160038201548152602001600482015481526020016005820160009054906101000a900460ff1615151515815250508383815181106105ba576105b961181d565b5b6020026020010181905250508080600101915050610459565b508091505090565b60006001600084815260200190815260200160002090508060050160009054906101000a900460ff1615610644576040517f08c379a000000000000000000000000000000000000000000000000000000000815260040161063b90611898565b60405180910390fd5b8060030154421061068a576040517f08c379a000000000000000000000000000000000000000000000000000000000815260040161068190611904565b60405180910390fd5b600082116106cd576040517f08c379a00000000000000000000000000000000000000000000000000000000081526004016106c490611996565b60405180910390fd5b81341461070f576040517f08c379a000000000000000000000000000000000000000000000000000000000815260040161070690611a28565b60405180910390fd5b60003073ffffffffffffffffffffffffffffffffffffffff168360405161073590611a79565b60006040518083038185875af1925050503d8060008114610772576040519150601f19603f3d011682016040523d82523d6000602084013e610777565b606091505b50509050806107bb576040517f08c379a00000000000000000000000000000000000000000000000000000000081526004016107b290611ada565b60405180910390fd5b60006002600086815260200190815260200160002060003373ffffffffffffffffffffffffffffffffffffffff1673ffffffffffffffffffffffffffffffffffffffff16815260200190815260200160002054036108885760036000858152602001908152602001600020339080600181540180825580915050600190039060005260206000200160009091909190916101000a81548173ffffffffffffffffffffffffffffffffffffffff021916908373ffffffffffffffffffffffffffffffffffffffff1602179055505b826002600086815260200190815260200160002060003373ffffffffffffffffffffffffffffffffffffffff1673ffffffffffffffffffffffffffffffffffffffff16815260200190815260200160002060008282546108e89190611afa565b92505081905550828260040160008282546109039190611afa565b925050819055503373ffffffffffffffffffffffffffffffffffffffff16847f9f0a129b85334ce6dc53da0a3aaafaacdce8b4704cc424c4835d88f4371cb716856040516109519190610ddd565b60405180910390a350505050565b60006001600083815260200190815260200160002090508060000160009054906101000a900473ffffffffffffffffffffffffffffffffffffffff1673ffffffffffffffffffffffffffffffffffffffff163373ffffffffffffffffffffffffffffffffffffffff1614610a08576040517f08c379a00000000000000000000000000000000000000000000000000000000081526004016109ff90611ba0565b60405180910390fd5b8060050160009054906101000a900460ff1615610a5a576040517f08c379a0000000000000000000000000000000000000000000000000000000008152600401610a5190611898565b60405180910390fd5b8060030154421015610aa1576040517f08c379a0000000000000000000000000000000000000000000000000000000008152600401610a9890611c0c565b60405180910390fd5b8060020154816004015410610b8a5760008160000160009054906101000a900473ffffffffffffffffffffffffffffffffffffffff1673ffffffffffffffffffffffffffffffffffffffff168260040154604051610afe90611a79565b60006040518083038185875af1925050503d8060008114610b3b576040519150601f19603f3d011682016040523d82523d6000602084013e610b40565b606091505b5050905080610b84576040517f08c379a0000000000000000000000000000000000000000000000000000000008152600401610b7b90611c78565b60405180910390fd5b50610d12565b60005b6003600084815260200190815260200160002080549050811015610d10576000600360008581526020019081526020016000208281548110610bd257610bd161181d565b5b9060005260206000200160009054906101000a900473ffffffffffffffffffffffffffffffffffffffff16905060006002600086815260200190815260200160002060008373ffffffffffffffffffffffffffffffffffffffff1673ffffffffffffffffffffffffffffffffffffffff16815260200190815260200160002054905060008273ffffffffffffffffffffffffffffffffffffffff1682604051610c7a90611a79565b60006040518083038185875af1925050503d8060008114610cb7576040519150601f19603f3d011682016040523d82523d6000602084013e610cbc565b606091505b5050905080610d00576040517f08c379a0000000000000000000000000000000000000000000000000000000008152600401610cf790611ce4565b60405180910390fd5b5050508080600101915050610b8d565b505b60018160050160006101000a81548160ff021916908315150217905550817f75d9b4c220529dda63dce075aa4c186e8f24151ecc185e707577fbfb5ab5b373826002015483600401541015604051610d6a9190611d13565b60405180910390a25050565b6040518060c00160405280600073ffffffffffffffffffffffffffffffffffffffff168152602001606081526020016000815260200160008152602001600081526020016000151581525090565b6000819050919050565b610dd781610dc4565b82525050565b6000602082019050610df26000830184610dce565b92915050565b6000604051905090565b600080fd5b600080fd5b610e1581610dc4565b8114610e2057600080fd5b50565b600081359050610e3281610e0c565b92915050565b600060208284031215610e4e57610e4d610e02565b5b6000610e5c84828501610e23565b91505092915050565b600081519050919050565b600082825260208201905092915050565b6000819050602082019050919050565b600073ffffffffffffffffffffffffffffffffffffffff82169050919050565b6000610ebc82610e91565b9050919050565b610ecc81610eb1565b82525050565b6000610ede8383610ec3565b60208301905092915050565b6000602082019050919050565b6000610f0282610e65565b610f0c8185610e70565b9350610f1783610e81565b8060005b83811015610f48578151610f2f8882610ed2565b9750610f3a83610eea565b925050600181019050610f1b565b5085935050505092915050565b60006020820190508181036000830152610f6f8184610ef7565b905092915050565b600080fd5b600080fd5b6000601f19601f8301169050919050565b7f4e487b7100000000000000000000000000000000000000000000000000000000600052604160045260246000fd5b610fca82610f81565b810181811067ffffffffffffffff82111715610fe957610fe8610f92565b5b80604052505050565b6000610ffc610df8565b90506110088282610fc1565b919050565b600067ffffffffffffffff82111561102857611027610f92565b5b61103182610f81565b9050602081019050919050565b82818337600083830152505050565b600061106061105b8461100d565b610ff2565b90508281526020810184848401111561107c5761107b610f7c565b5b61108784828561103e565b509392505050565b600082601f8301126110a4576110a3610f77565b5b81356110b484826020860161104d565b91505092915050565b6000806000606084860312156110d6576110d5610e02565b5b600084013567ffffffffffffffff8111156110f4576110f3610e07565b5b6111008682870161108f565b935050602061111186828701610e23565b925050604061112286828701610e23565b9150509250925092565b600081519050919050565b600082825260208201905092915050565b6000819050602082019050919050565b600081519050919050565b600082825260208201905092915050565b60005b83811015611192578082015181840152602081019050611177565b60008484015250505050565b60006111a982611158565b6111b38185611163565b93506111c3818560208601611174565b6111cc81610f81565b840191505092915050565b6111e081610dc4565b82525050565b60008115159050919050565b6111fb816111e6565b82525050565b600060c0830160008301516112196000860182610ec3565b5060208301518482036020860152611231828261119e565b915050604083015161124660408601826111d7565b50606083015161125960608601826111d7565b50608083015161126c60808601826111d7565b5060a083015161127f60a08601826111f2565b508091505092915050565b60006112968383611201565b905092915050565b6000602082019050919050565b60006112b68261112c565b6112c08185611137565b9350836020820285016112d285611148565b8060005b8581101561130e57848403895281516112ef858261128a565b94506112fa8361129e565b925060208a019950506001810190506112d6565b50829750879550505050505092915050565b6000602082019050818103600083015261133a81846112ab565b905092915050565b6000806040838503121561135957611358610e02565b5b600061136785828601610e23565b925050602061137885828601610e23565b9150509250929050565b600082825260208201905092915050565b7f446561646c696e65206d75737420626520696e20746865206675747572650000600082015250565b60006113c9601e83611382565b91506113d482611393565b602082019050919050565b600060208201905081810360008301526113f8816113bc565b9050919050565b7f476f616c206d7573742062652067726561746572207468616e20300000000000600082015250565b6000611435601b83611382565b9150611440826113ff565b602082019050919050565b6000602082019050818103600083015261146481611428565b9050919050565b7f4e487b7100000000000000000000000000000000000000000000000000000000600052602260045260246000fd5b600060028204905060018216806114b257607f821691505b6020821081036114c5576114c461146b565b5b50919050565b60008190508160005260206000209050919050565b60006020601f8301049050919050565b600082821b905092915050565b60006008830261152d7fffffffffffffffffffffffffffffffffffffffffffffffffffffffffffffffff826114f0565b61153786836114f0565b95508019841693508086168417925050509392505050565b6000819050919050565b600061157461156f61156a84610dc4565b61154f565b610dc4565b9050919050565b6000819050919050565b61158e83611559565b6115a261159a8261157b565b8484546114fd565b825550505050565b600090565b6115b76115aa565b6115c2818484611585565b505050565b5b818110156115e6576115db6000826115af565b6001810190506115c8565b5050565b601f82111561162b576115fc816114cb565b611605846114e0565b81016020851015611614578190505b611628611620856114e0565b8301826115c7565b50505b505050565b600082821c905092915050565b600061164e60001984600802611630565b1980831691505092915050565b6000611667838361163d565b9150826002028217905092915050565b61168082611158565b67ffffffffffffffff81111561169957611698610f92565b5b6116a3825461149a565b6116ae8282856115ea565b600060209050601f8311600181146116e157600084156116cf578287015190505b6116d9858261165b565b865550611741565b601f1984166116ef866114cb565b60005b82811015611717578489015182556001820191506020850194506020810190506116f2565b868310156117345784890151611730601f89168261163d565b8355505b6001600288020188555050505b505050505050565b7f4e487b7100000000000000000000000000000000000000000000000000000000600052601160045260246000fd5b600061178382610dc4565b91507fffffffffffffffffffffffffffffffffffffffffffffffffffffffffffffffff82036117b5576117b4611749565b5b600182019050919050565b60006117cb82610dc4565b91506117d683610dc4565b92508282039050818111156117ee576117ed611749565b5b92915050565b60006040820190506118096000830185610dce565b6118166020830184610dce565b9392505050565b7f4e487b7100000000000000000000000000000000000000000000000000000000600052603260045260246000fd5b7f43616d706169676e20616c726561647920656e64656400000000000000000000600082015250565b6000611882601683611382565b915061188d8261184c565b602082019050919050565b600060208201905081810360008301526118b181611875565b9050919050565b7f446561646c696e65207265616368656400000000000000000000000000000000600082015250565b60006118ee601083611382565b91506118f9826118b8565b602082019050919050565b6000602082019050818103600083015261191d816118e1565b9050919050565b7f436f6e747269627574696f6e206d75737420626520677265617465722074686160008201527f6e20300000000000000000000000000000000000000000000000000000000000602082015250565b6000611980602383611382565b915061198b82611924565b604082019050919050565b600060208201905081810360008301526119af81611973565b9050919050565b7f53656e742076616c7565206d757374206d61746368207370656369666965642060008201527f616d6f756e740000000000000000000000000000000000000000000000000000602082015250565b6000611a12602683611382565b9150611a1d826119b6565b604082019050919050565b60006020820190508181036000830152611a4181611a05565b9050919050565b600081905092915050565b50565b6000611a63600083611a48565b9150611a6e82611a53565b600082019050919050565b6000611a8482611a56565b9150819050919050565b7f5472616e7366657220746f20636f6e7472616374206661696c65640000000000600082015250565b6000611ac4601b83611382565b9150611acf82611a8e565b602082019050919050565b60006020820190508181036000830152611af381611ab7565b9050919050565b6000611b0582610dc4565b9150611b1083610dc4565b9250828201905080821115611b2857611b27611749565b5b92915050565b7f596f7520617265206e6f7420746865206f776e6572206f66207468697320636160008201527f6d706169676e0000000000000000000000000000000000000000000000000000602082015250565b6000611b8a602683611382565b9150611b9582611b2e565b604082019050919050565b60006020820190508181036000830152611bb981611b7d565b9050919050565b7f446561646c696e65206e6f742072656163686564207965740000000000000000600082015250565b6000611bf6601883611382565b9150611c0182611bc0565b602082019050919050565b60006020820190508181036000830152611c2581611be9565b9050919050565b7f5472616e7366657220746f206f776e6572206661696c65640000000000000000600082015250565b6000611c62601883611382565b9150611c6d82611c2c565b602082019050919050565b60006020820190508181036000830152611c9181611c55565b9050919050565b7f526566756e6420746f20636f6e7472696275746f72206661696c656400000000600082015250565b6000611cce601c83611382565b9150611cd982611c98565b602082019050919050565b60006020820190508181036000830152611cfd81611cc1565b9050919050565b611d0d816111e6565b82525050565b6000602082019050611d286000830184611d04565b9291505056fea2646970667358221220d8c665d172049bbc952c7ed5635d6863d0dae96ae9a141af61ac20d6f9c19f4d64736f6c634300081c0033",
  "linkReferences": {},
  "deployedLinkReferences": {}
}